:100000000C9434000C9451000C9451000C948B000F
:100010000C9451000C9451000C9451000C9451001C
:100020000C9451000C9451000C9451000C9451000C
:100030000C9451000C9451000C9451000C945100FC
:100040000C9451000C9451000C9481000C945100BC
:100050000C9451000C9451000C9451000C945100DC
:100060000C9451000C94510011241FBECFEFD8E026
:10007000DEBFCDBF11E0A0E0B1E0E0E1F3E002C0FF
:1000800005900D92A230B107D9F711E0A2E0B1E0DE
:1000900001C01D92A034B107E1F70E941F010C942A
:1000A00086010C9400001092C00088E98093C10082
:1000B00086E08093C2001092C50089E18093C4005D
:1000C00014B885B1876185B9E8E6F0E08081816088
:1000D0008083EBE6F0E080818F6080831092800067
:1000E00082E08093810010928500109284007894C1
:1000F000539A08959091C00095FFFCCF8093C6005D
:1001000008951F920F920FB60F9211240F900FBEF9
:100110000F901F9018951F920F920FB60F921124F7
:10012000EF92FF920F931F932F933F934F935F9301
:100130006F937F938F939F93AF93BF93CF93DF93EF
:10014000EF93FF9383B1809332018BB198E08927BD
:100150008BB900913201C0910001C027C0933F01CB
:100160000093000120E030E0EC2EF12C10E0C701FC
:10017000022E02C0959587950A94E2F780FF42C04F
:10018000F901EE0FFF1FEE0FFF1FC801022E02C084
:10019000959587950A94E2F780FF09C080918400C5
:1001A00090918500A0E0B0E0EE5FFE4F27C0809107
:1001B000840090918500A0E0B0E0AF014E5D5E4FFD
:1001C000EA0188839983AA83BB8388819981AA8164
:1001D000BB81AF014E5F5E4FEA01488159816A8160
:1001E0007B81841B950B97FF03C0919581959109A5
:1001F000AA2797FDA095BA2FEE5EFE4F80839183CC
:10020000A283B3832F5F3F4F2430310509F0AFCF76
:10021000FF91EF91DF91CF91BF91AF919F918F911E
:100220007F916F915F914F913F912F911F910F910E
:10023000FF90EF900F900FBE0F901F9018950E94A7
:100240005300C0E08091120190911301A09114011C
:10025000B09115018093330190933401A09335013F
:10026000B09336018091160190911701A091180169
:10027000B09119018093370190933801A09339010F
:10028000B0933A0180911A0190911B01A0911C0139
:10029000B0911D0180933B0190933C01A0933D01DF
:1002A000B0933E0120E030E08FE796E9A8E9B0E0A6
:1002B000F901EE0FFF1FEE0FFF1FED5CFE4F4081B7
:1002C000518162817381481759076A077B0728F4B7
:1002D00080819181A281B381C22F2F5F3F4F233054
:1002E000310531F780E38C0F0E947A008DE00E9487
:1002F0007A008AE00E947A002FEF83EC99E0215087
:1003000080409040E1F700C000009CCFF894FFCF00
:02031000FF00EC
:00000001FF
