:100000000C9434000C9451000C9451000C9480001A
:100010000C9451000C9451000C9451000C9451001C
:100020000C9451000C9451000C9451000C9451000C
:100030000C9451000C9451000C9451000C945100FC
:100040000C9451000C9451000C9476000C945100C7
:100050000C9451000C9451000C9451000C945100DC
:100060000C9451000C94510011241FBECFEFD8E026
:10007000DEBFCDBF11E0A0E0B1E0E0EFF4E002C0F0
:1000800005900D92A230B107D9F711E0A2E0B1E0DE
:1000900001C01D92A633B107E1F70E94A6010C949E
:1000A00076020C94000088E98093C10086E080937A
:1000B000C2001092C50089E18093C40014B885B1D4
:1000C000876185B9E8E6F0E0808181608083EBE6B6
:1000D000F0E080818F6080831092800082E08093C6
:1000E0008100109285007894539A08951F920F9280
:1000F0000FB60F9211240F900FBE0F901F901895FE
:100100001F920F920FB60F9211244F925F926F922F
:100110007F928F929F92AF92BF92CF92DF92EF9297
:10012000FF920F931F932F933F934F935F936F9380
:100130007F938F939F93AF93BF93CF93DF93EF936F
:10014000FF93E3B08BB198E089278BB90091000150
:100150000E25E0920001C0E0D0E010E0F12C9AE022
:10016000892E912CA12CB12CC8010C2E02C0959582
:1001700087950A94E2F780FFBCC0FE01EE0FFF1FD7
:10018000EE0FFF1FC7010C2E02C0959587950A94AC
:10019000E2F780FF40C080918500482F50E060E08A
:1001A00070E09F012A5F3E4FD9014D935D936D939F
:1001B0007C9313979F012A5D3E4FD9014D915D912C
:1001C0006D917C9113974A3051056105710554F486
:1001D0008D919D910D90BC91A02D0196A11DB11DF9
:1001E000F90183C0D9011D921D921D921C92139793
:1001F000CF018A5E9E4F6C01DC016D917D918D91E6
:100200009C91A50194010E943502F601208331835F
:10021000428353836EC08091850090E0A0E0B0E0FF
:100220008093020190930301A0930401B093050110
:100230004091020150910301609104017091050108
:100240009F012A5F3E4FD9014D905D906D907C904B
:10025000CF018A5E9E4F6C014415550566057705F2
:100260004CF5DC014D915D916D917C918091020185
:1002700090910301A0910401B0910501F901408022
:10028000518062807380805C9D4BA04FBF4F84196A
:100290009509A609B709480F591F6A1F7B1FD60188
:1002A0004D935D936D937C9313971082118212820C
:1002B00013821FC0FC0180819181A281B381409192
:1002C0000201509103016091040170910501F9014F
:1002D000408051806280738044195509660977090E
:1002E000840F951FA61FB71FF60180839183A283F9
:1002F000B3832196C430D10509F036CFFF91EF9139
:10030000DF91CF91BF91AF919F918F917F916F912D
:100310005F914F913F912F911F910F91FF90EF901F
:10032000DF90CF90BF90AF909F908F907F906F9015
:100330005F904F900F900FBE0F901F901895909167
:10034000C00095FFFCCF8093C60008950E94530023
:1003500010E020E2422E2EE4522E612C712C3AE065
:10036000C32ED12CE12CF12C40ED842E47E0942EAD
:10037000A12CB12C80E3810F0E949F0180E20E949A
:100380009F0184E0189FE0011124CA5EDE4F68815E
:1003900079818A819B81A30192010E943502CA0161
:1003A000B901A70196010E94350280E3860F0E94E1
:1003B0009F01688179818A819B81A50194010E94B6
:1003C0003502CA01B901A70196010E94350280E3F6
:1003D000860F0E949F01688179818A819B8128EC28
:1003E00030E040E050E00E943502CA01B901A701A7
:1003F00096010E94350280E3860F0E949F0168816A
:1004000079818A819B8124E130E040E050E00E94C4
:100410003502CA01B901A70196010E94350280E3A5
:10042000860F0E949F01688179818A819B8122E0E9
:1004300030E040E050E00E943502CA01B901A70156
:1004400096010E94350280E3860F0E949F018091F1
:100450008500805D0E949F018DE00E949F018AE0DF
:100460000E949F011F5F137085CF052E97FB1EF41E
:1004700000940E944C0257FD07D00E94540207FCD2
:1004800003D04EF40C944C02509540953095219534
:100490003F4F4F4F5F4F08959095809570956195B0
:1004A0007F4F8F4F9F4F0895A1E21A2EAA1BBB1BAF
:1004B000FD010DC0AA1FBB1FEE1FFF1FA217B30730
:1004C000E407F50720F0A21BB30BE40BF50B661F46
:1004D000771F881F991F1A9469F76095709580950A
:1004E00090959B01AC01BD01CF010895F894FFCF19
:0204F000FF000B
:00000001FF
