:100000000C9434000C9449000C9449000C947B002F
:100010000C9449000C9449000C9449000C9449003C
:100020000C9449000C9449000C9449000C9449002C
:100030000C9449000C9449000C9449000C9449001C
:100040000C9449000C9449000C9471000C944900E4
:100050000C9449000C9449000C9449000C944900FC
:100060000C9449000C94490011241FBECFEFD8E036
:10007000DEBFCDBF11E0A0E0B1E0E8E2F1E002C0F8
:1000800005900D92A230B107D9F70E948D000C9413
:1000900092000C9400001092C00088E98093C10087
:1000A00086E08093C2001092C5008CE08093C4006B
:1000B00014B885B1876185B9E8E6F0E08081816098
:1000C0008083EBE6F0E08081816080831092800085
:1000D000E1E8F0E08081816080831092850078946F
:1000E00008951F920F920FB60F9211240F900FBE1A
:1000F0000F901F9018951F920F920FB60F92112418
:100100008F9383B18091000183B1809300018F911F
:100110000F900FBE0F901F9018950E944B0080E02B
:0801200090E00895F894FFCF70
:02012800FF00D6
:00000001FF
