:100000000C9434000C943E000C943E000C943E0082
:100010000C943E000C943E000C943E000C943E0068
:100020000C943E000C943E000C943E000C943E0058
:100030000C943E000C943E000C943E000C943E0048
:100040000C943E000C943E000C944F000C943E0027
:100050000C943E000C943E000C943E000C943E0028
:100060000C943E000C943E0011241FBECFEFD8E04C
:10007000DEBFCDBF0E9459000C945E000C940000BE
:100080001092C00088E98093C10086E08093C2008E
:100090001092C5008CE08093C400789408951F925C
:1000A0000F920FB60F9211240F900FBE0F901F905A
:1000B00018950E94400080E090E00895F894FFCFEA
:00000001FF
