:100000000C9434000C9451000C9451000C94820018
:100010000C9451000C9451000C9451000C9451001C
:100020000C9451000C9451000C9451000C9451000C
:100030000C9451000C9451000C9451000C945100FC
:100040000C9451000C9451000C9478000C945100C5
:100050000C9451000C9451000C9451000C945100DC
:100060000C9451000C94510011241FBECFEFD8E026
:10007000DEBFCDBF11E0A0E0B1E0E0E0F5E002C0FE
:1000800005900D92A230B107D9F711E0A2E0B1E0DE
:1000900001C01D92A633B107E1F70E94A9010C949B
:1000A0007E020C94000088E98093C10086E0809372
:1000B000C2001092C50089E18093C40014B885B1D4
:1000C000876185B9E8E6F0E0808181608083EBE6B6
:1000D000F0E080818F6080831092800082E08093C6
:1000E000810010928500109284007894539A0895AC
:1000F0001F920F920FB60F9211240F900FBE0F9008
:100100001F9018951F920F920FB60F9211244F92C5
:100110005F926F927F928F929F92AF92BF92CF9297
:10012000DF92EF92FF920F931F932F933F934F9382
:100130005F936F937F938F939F93AF93BF93CF936F
:10014000DF93EF93FF93E3B08BB198E089278BB9EE
:10015000009100010E25E0920001C0E0D0E010E027
:10016000F12C9AE0892E912CA12CB12CC8010C2ED7
:1001700002C0959587950A94E2F780FFBDC0FE0105
:10018000EE0FFF1FEE0FFF1FC7010C2E02C095954B
:1001900087950A94E2F780FF40C080918500482F40
:1001A00050E060E070E09F012A5F3E4FD9014D931F
:1001B0005D936D937C9313979F012A5D3E4FD90108
:1001C0004D915D916D917C9113974A305105610578
:1001D000710554F48D919D910D90BC91A02D0196C7
:1001E000A11DB11DF90184C0D9011D921D921D925E
:1001F0001C921397CF018A5E9E4F6C01DC016D91BA
:100200007D918D919C91A50194010E940D02F601B2
:1002100020833183428353836FC080918400909107
:100220008500A0E0B0E08093020190930301A093C9
:100230000401B093050140910201509103016091C6
:100240000401709105019F012A5F3E4FD9014D9035
:100250005D906D907C90CF018A5E9E4F6C0144153D
:100260005505660577054CF5DC014D915D916D9165
:100270007C918091020190910301A0910401B091C1
:100280000501F901408051806280738080589B474E
:10029000A14EBF4F84199509A609B709480F591FE8
:1002A0006A1F7B1FD6014D935D936D937C931397CB
:1002B00010821182128213821FC0FC018081918101
:1002C000A281B38140910201509103016091040128
:1002D00070910501F901408051806280738044195A
:1002E000550966097709840F951FA61FB71FF601E8
:1002F00080839183A283B3832196C430D10509F012
:1003000035CFFF91EF91DF91CF91BF91AF919F9149
:100310008F917F916F915F914F913F912F911F919D
:100320000F91FF90EF90DF90CF90BF90AF909F9094
:100330008F907F906F905F904F900F900FBE0F90B7
:100340001F9018959091C00095FFFCCF8093C60038
:100350000895A0E0B0E0EFEAF1E00C9431020E94D1
:100360005300B12C32E0C32ED12CE12CF12CCAE089
:10037000D0E084E0B89EF0011124EA5EFE4F608177
:10038000718182819381A70196010E940D02722ED4
:10039000A32E80E38B0D0E94A20180E20E94A201A5
:1003A00005E010E020E1822E27E2922E872D9A2D83
:1003B000B4010E94F901782EA92ECB01BE010E9442
:1003C000F901805D0E94A201C401BE010E94F901F1
:1003D0004B01015011090115110541F78DE00E94F3
:1003E000A2018AE00E94A201B3948B2D8370B82EE3
:1003F000C0CF97FB072E16F4009407D077FD09D0E5
:100400000E94480207FC05D03EF4909581959F4FCD
:100410000895709561957F4F0895052E97FB1EF402
:1004200000940E94240257FD07D00E945C0207FC42
:1004300003D04EF40C9424025095409530952195AC
:100440003F4F4F4F5F4F0895909580957095619500
:100450007F4F8F4F9F4F08952F923F924F925F9201
:100460006F927F928F929F92AF92BF92CF92DF92C4
:10047000EF92FF920F931F93CF93DF93CDB7DEB729
:10048000CA1BDB0B0FB6F894DEBF0FBECDBF0994BD
:10049000AA1BBB1B51E107C0AA1FBB1FA617B707AA
:1004A00010F0A61BB70B881F991F5A95A9F78095C6
:1004B0009095BC01CD010895A1E21A2EAA1BBB1B89
:1004C000FD010DC0AA1FBB1FEE1FFF1FA217B30720
:1004D000E407F50720F0A21BB30BE40BF50B661F36
:1004E000771F881F991F1A9469F7609570958095FA
:1004F00090959B01AC01BD01CF010895F894FFCF09
:02050000FF00FA
:00000001FF
